{
  "_format": "hh-sol-artifact-1",
  "contractName": "Staking",
  "sourceName": "contracts/Staking.sol",
  "abi": [
    {
      "inputs": [
        {
          "internalType": "address",
          "name": "_stakingToken",
          "type": "address"
        }
      ],
      "stateMutability": "nonpayable",
      "type": "constructor"
    },
    {
      "anonymous": false,
      "inputs": [
        {
          "indexed": true,
          "internalType": "address",
          "name": "previousOwner",
          "type": "address"
        },
        {
          "indexed": true,
          "internalType": "address",
          "name": "newOwner",
          "type": "address"
        }
      ],
      "name": "OwnershipTransferred",
      "type": "event"
    },
    {
      "inputs": [
        {
          "internalType": "uint256",
          "name": "_id",
          "type": "uint256"
        }
      ],
      "name": "claimReward",
      "outputs": [],
      "stateMutability": "nonpayable",
      "type": "function"
    },
    {
      "inputs": [
        {
          "internalType": "uint256",
          "name": "_id",
          "type": "uint256"
        }
      ],
      "name": "getClaimable",
      "outputs": [
        {
          "internalType": "uint256",
          "name": "",
          "type": "uint256"
        }
      ],
      "stateMutability": "view",
      "type": "function"
    },
    {
      "inputs": [],
      "name": "getCurrentStakedAmount",
      "outputs": [
        {
          "internalType": "uint256",
          "name": "",
          "type": "uint256"
        }
      ],
      "stateMutability": "view",
      "type": "function"
    },
    {
      "inputs": [
        {
          "internalType": "uint256",
          "name": "_id",
          "type": "uint256"
        }
      ],
      "name": "getStakeInfo",
      "outputs": [
        {
          "internalType": "uint256",
          "name": "",
          "type": "uint256"
        },
        {
          "internalType": "address",
          "name": "",
          "type": "address"
        },
        {
          "internalType": "uint256",
          "name": "",
          "type": "uint256"
        },
        {
          "internalType": "uint256",
          "name": "",
          "type": "uint256"
        },
        {
          "internalType": "uint256",
          "name": "",
          "type": "uint256"
        },
        {
          "internalType": "bool",
          "name": "",
          "type": "bool"
        }
      ],
      "stateMutability": "view",
      "type": "function"
    },
    {
      "inputs": [
        {
          "internalType": "address",
          "name": "_staker",
          "type": "address"
        }
      ],
      "name": "getStakesByStaker",
      "outputs": [
        {
          "components": [
            {
              "internalType": "uint256",
              "name": "id",
              "type": "uint256"
            },
            {
              "internalType": "address",
              "name": "staker",
              "type": "address"
            },
            {
              "internalType": "uint256",
              "name": "amount",
              "type": "uint256"
            },
            {
              "internalType": "uint256",
              "name": "stakeTimeStamp",
              "type": "uint256"
            },
            {
              "internalType": "uint256",
              "name": "lastClaimTimeStamp",
              "type": "uint256"
            },
            {
              "internalType": "bool",
              "name": "staking",
              "type": "bool"
            }
          ],
          "internalType": "struct Staking.Stake[]",
          "name": "",
          "type": "tuple[]"
        }
      ],
      "stateMutability": "view",
      "type": "function"
    },
    {
      "inputs": [],
      "name": "getStakingCount",
      "outputs": [
        {
          "internalType": "uint256",
          "name": "",
          "type": "uint256"
        }
      ],
      "stateMutability": "view",
      "type": "function"
    },
    {
      "inputs": [],
      "name": "getStakingTokenBalance",
      "outputs": [
        {
          "internalType": "uint256",
          "name": "",
          "type": "uint256"
        }
      ],
      "stateMutability": "view",
      "type": "function"
    },
    {
      "inputs": [],
      "name": "owner",
      "outputs": [
        {
          "internalType": "address",
          "name": "",
          "type": "address"
        }
      ],
      "stateMutability": "view",
      "type": "function"
    },
    {
      "inputs": [],
      "name": "renounceOwnership",
      "outputs": [],
      "stateMutability": "nonpayable",
      "type": "function"
    },
    {
      "inputs": [
        {
          "internalType": "uint256",
          "name": "_amount",
          "type": "uint256"
        }
      ],
      "name": "stakeToken",
      "outputs": [],
      "stateMutability": "nonpayable",
      "type": "function"
    },
    {
      "inputs": [],
      "name": "timeflag",
      "outputs": [
        {
          "internalType": "uint256",
          "name": "",
          "type": "uint256"
        }
      ],
      "stateMutability": "view",
      "type": "function"
    },
    {
      "inputs": [
        {
          "internalType": "address",
          "name": "newOwner",
          "type": "address"
        }
      ],
      "name": "transferOwnership",
      "outputs": [],
      "stateMutability": "nonpayable",
      "type": "function"
    },
    {
      "inputs": [
        {
          "internalType": "uint256",
          "name": "_id",
          "type": "uint256"
        }
      ],
      "name": "unStake",
      "outputs": [],
      "stateMutability": "nonpayable",
      "type": "function"
    }
  ],
  "bytecode": "0x6080604052600860048190556200001890600a62000222565b62000025906064620002e0565b6005556004546200003890600a62000222565b6200004690612710620002e0565b60065561012c600755603260085560006009556000600a556000600d556000600e553480156200007557600080fd5b506040516200158a3803806200158a8339810160408190526200009891620001a9565b620000a33362000153565b60018081905550620000c081620001a360201b62000dcb1760201c565b620001235760405162461bcd60e51b815260206004820152602960248201527f546865206164647265737320646f6573206e6f7420706f696e7420746f20612060448201526831b7b73a3930b1ba1760b91b606482015260840160405180910390fd5b600380546001600160a01b039092166001600160a01b031992831681179091556002805490921617905562000318565b600080546001600160a01b038381166001600160a01b0319831681178455604051919092169283917f8be0079c531659141344cd1fd0a4f28419497f9722a3daafe3b4186f6b6457e09190a35050565b3b151590565b600060208284031215620001bb578081fd5b81516001600160a01b0381168114620001d2578182fd5b9392505050565b600181815b808511156200021a578160001904821115620001fe57620001fe62000302565b808516156200020c57918102915b93841c9390800290620001de565b509250929050565b6000620001d283836000826200023b57506001620002da565b816200024a57506000620002da565b81600181146200026357600281146200026e576200028e565b6001915050620002da565b60ff84111562000282576200028262000302565b50506001821b620002da565b5060208310610133831016604e8410600b8410161715620002b3575081810a620002da565b620002bf8383620001d9565b8060001904821115620002d657620002d662000302565b0290505b92915050565b6000816000190483118215151615620002fd57620002fd62000302565b500290565b634e487b7160e01b600052601160045260246000fd5b61126280620003286000396000f3fe608060405234801561001057600080fd5b50600436106100df5760003560e01c80638da5cb5b1161008c578063ae169a5011610066578063ae169a5014610204578063cda6b84714610217578063e6572f951461022a578063f2fde38b1461023257600080fd5b80638da5cb5b146101cd5780638e542446146101e85780639c7e4a66146101f157600080fd5b80635d3eea91116100bd5780635d3eea9114610190578063715018a6146101a55780638cfd3500146101ad57600080fd5b806309813482146100e457806320a1318c1461017257806340ac150214610188575b600080fd5b6101366100f23660046110bc565b6000908152600c602052604090208054600182015460028301546003840154600485015460059095015493956001600160a01b03909316949193909260ff90911690565b604080519687526001600160a01b0390951660208701529385019290925260608401526080830152151560a082015260c0015b60405180910390f35b61017a610245565b604051908152602001610169565b60095461017a565b6101a361019e3660046110bc565b6102df565b005b6101a36104ff565b6101c06101bb366004611075565b610565565b60405161016991906110ec565b6000546040516001600160a01b039091168152602001610169565b61017a600e5481565b61017a6101ff3660046110bc565b61061e565b6101a36102123660046110bc565b6106d5565b6101a36102253660046110bc565b610977565b600a5461017a565b6101a3610240366004611075565b610ce9565b6002546040517f70a082310000000000000000000000000000000000000000000000000000000081523060048201526000916001600160a01b0316906370a082319060240160206040518083038186803b1580156102a257600080fd5b505afa1580156102b6573d6000803e3d6000fd5b505050506040513d601f19601f820116820180604052508101906102da91906110d4565b905090565b600260015414156103375760405162461bcd60e51b815260206004820152601f60248201527f5265656e7472616e637947756172643a207265656e7472616e742063616c6c0060448201526064015b60405180910390fd5b600260019081556000828152600c6020526040902001546001600160a01b031633146103a55760405162461bcd60e51b815260206004820152601560248201527f43616c6c6572206973206e6f74207374616b65722e0000000000000000000000604482015260640161032e565b6000818152600c602052604090206005015460ff16151560011461040b5760405162461bcd60e51b815260206004820181905260248201527f54686973207374616b696e672068617665206265656e2066696e69736865642e604482015260640161032e565b600280546000838152600c60205260409081902090920154915163a9059cbb60e01b815233600482015260248101929092526001600160a01b03169063a9059cbb90604401602060405180830381600087803b15801561046a57600080fd5b505af115801561047e573d6000803e3d6000fd5b505050506040513d601f19601f820116820180604052508101906104a2919061109c565b506000818152600c60205260409020600501805460ff191690556104c63382610dd1565b6000818152600c60205260409020600201546009546104e491610fe2565b600955600a546104f5906001610fe2565b600a555060018055565b6000546001600160a01b031633146105595760405162461bcd60e51b815260206004820181905260248201527f4f776e61626c653a2063616c6c6572206973206e6f7420746865206f776e6572604482015260640161032e565b6105636000610ff5565b565b6001600160a01b0381166000908152600b60209081526040808320805482518185028101850190935280835260609492939192909184015b828210156106135760008481526020908190206040805160c08101825260068602909201805483526001808201546001600160a01b03168486015260028201549284019290925260038101546060840152600481015460808401526005015460ff16151560a0830152908352909201910161059d565b505050509050919050565b6007546000828152600c60205260408120600401549091829161064190426111ba565b10801591506106cc576000838152600c602052604081206004015461066690426111ba565b60075490915060009061068d906106876106808583611045565b8590610fe2565b90611051565b6008546000878152600c6020526040812060020154929350916106c29184916106bc916064916106879161105d565b9061105d565b9695505050505050565b50600092915050565b600260015414156107285760405162461bcd60e51b815260206004820152601f60248201527f5265656e7472616e637947756172643a207265656e7472616e742063616c6c00604482015260640161032e565b600260019081556000828152600c6020526040902001546001600160a01b031633146107965760405162461bcd60e51b815260206004820152601560248201527f43616c6c6572206973206e6f74207374616b65722e0000000000000000000000604482015260640161032e565b6000818152600c602052604090206005015460ff1615156001146107fc5760405162461bcd60e51b815260206004820181905260248201527f54686973207374616b696e672068617665206265656e2066696e69736865642e604482015260640161032e565b6007546000828152600c602052604090206004015461081b90426111ba565b10156108695760405162461bcd60e51b815260206004820152601460248201527f5265776172642069732070656e64696e672e2e2e000000000000000000000000604482015260640161032e565b6000818152600c602052604081206004015461088590426111ba565b60075490915060009061089f906106876106808583611045565b600e8190556008546000858152600c6020526040812060020154929350916108d39184916106bc916064916106879161105d565b60025460405163a9059cbb60e01b8152336004820152602481018390529192506001600160a01b03169063a9059cbb90604401602060405180830381600087803b15801561092057600080fd5b505af1158015610934573d6000803e3d6000fd5b505050506040513d601f19601f82011682018060405250810190610958919061109c565b505050600091825250600c602052604090204260049091015560018055565b600260015414156109ca5760405162461bcd60e51b815260206004820152601f60248201527f5265656e7472616e637947756172643a207265656e7472616e742063616c6c00604482015260640161032e565b60026001819055546040517fdd62ed3e00000000000000000000000000000000000000000000000000000000815233600482015230602482015282916001600160a01b03169063dd62ed3e9060440160206040518083038186803b158015610a3157600080fd5b505afa158015610a45573d6000803e3d6000fd5b505050506040513d601f19601f82011682018060405250810190610a6991906110d4565b1015610ab75760405162461bcd60e51b815260206004820152601b60248201527f456e6f75676820616d6f756e74206e6f7420617070726f7665642e0000000000604482015260640161032e565b6002546040517f23b872dd000000000000000000000000000000000000000000000000000000008152336004820152306024820152604481018390526001600160a01b03909116906323b872dd90606401602060405180830381600087803b158015610b2257600080fd5b505af1158015610b36573d6000803e3d6000fd5b505050506040513d601f19601f82011682018060405250810190610b5a919061109c565b50610b9f6040518060c001604052806000815260200160006001600160a01b031681526020016000815260200160008152602001600081526020016000151581525090565b600d80548083523360208085019182526040808601878152426060880181815260808901918252600160a08a018181526000988952600c9096529390962088518155945185840180546001600160a01b0319166001600160a01b03909216919091179055905160028501559351600384015592516004830155516005909101805460ff19169115159190911790559054610c3891611069565b600d55600954610c489083611069565b600955336000908152600b602090815260408083208054600180820183559185529383902085516006909502019384559184015183830180546001600160a01b0319166001600160a01b039092169190911790558301516002830155606083015160038301556080830151600483015560a08301516005909201805460ff191692151592909217909155600a54610cde91611069565b600a55505060018055565b6000546001600160a01b03163314610d435760405162461bcd60e51b815260206004820181905260248201527f4f776e61626c653a2063616c6c6572206973206e6f7420746865206f776e6572604482015260640161032e565b6001600160a01b038116610dbf5760405162461bcd60e51b815260206004820152602660248201527f4f776e61626c653a206e6577206f776e657220697320746865207a65726f206160448201527f6464726573730000000000000000000000000000000000000000000000000000606482015260840161032e565b610dc881610ff5565b50565b3b151590565b60005b6001600160a01b0383166000908152600b6020526040902054811015610fdd576001600160a01b0383166000908152600b60205260409020805483919083908110610e2f57634e487b7160e01b600052603260045260246000fd5b9060005260206000209060060201600001541415610fcb576001600160a01b0383166000908152600b602052604090208054610e6d906001906111ba565b81548110610e8b57634e487b7160e01b600052603260045260246000fd5b9060005260206000209060060201600b6000856001600160a01b03166001600160a01b031681526020019081526020016000208281548110610edd57634e487b7160e01b600052603260045260246000fd5b60009182526020808320845460069093020191825560018085015490830180546001600160a01b0319166001600160a01b0392831617905560028086015490840155600380860154908401556004808601549084015560059485015494909201805460ff909516151560ff199095169490941790935585168152600b90915260409020805480610f7d57634e487b7160e01b600052603160045260246000fd5b6000828152602081206006600019909301928302018181556001810180546001600160a01b031916905560028101829055600381018290556004810191909155600501805460ff1916905590555b80610fd5816111d1565b915050610dd4565b505050565b6000610fee82846111ba565b9392505050565b600080546001600160a01b038381166001600160a01b0319831681178455604051919092169283917f8be0079c531659141344cd1fd0a4f28419497f9722a3daafe3b4186f6b6457e09190a35050565b6000610fee82846111ec565b6000610fee8284611187565b6000610fee828461119b565b6000610fee828461116f565b600060208284031215611086578081fd5b81356001600160a01b0381168114610fee578182fd5b6000602082840312156110ad578081fd5b81518015158114610fee578182fd5b6000602082840312156110cd578081fd5b5035919050565b6000602082840312156110e5578081fd5b5051919050565b602080825282518282018190526000919060409081850190868401855b8281101561116257815180518552868101516001600160a01b0316878601528581015186860152606080820151908601526080808201519086015260a09081015115159085015260c09093019290850190600101611109565b5091979650505050505050565b6000821982111561118257611182611200565b500190565b60008261119657611196611216565b500490565b60008160001904831182151516156111b5576111b5611200565b500290565b6000828210156111cc576111cc611200565b500390565b60006000198214156111e5576111e5611200565b5060010190565b6000826111fb576111fb611216565b500690565b634e487b7160e01b600052601160045260246000fd5b634e487b7160e01b600052601260045260246000fdfea2646970667358221220a6bc2120a587ef02acd5b081733dd9ca872c49e359f6a7ab12c31677b20b391464736f6c63430008040033",
  "linkReferences": {},
  "deployedLinkReferences": {}
}